:020000040000fa
:080000000002040000000000f2
:020000040000fa
:10000800c8020000ce020000ea020000d40200008c
:10001800da020000e0020000ee020000e602000042
:10002800e6020000e6020000e60200007e39000059
:10003800b61e0000e6020000e6020000e60200002c
:10004800e6020000e6020000e6020000f2020000fc
:1000580022030000e6020000e6020000e6020000bb
:10006800e6020000e6020000e6020000e6020000e8
:10007800e6020000e6020000e6020000e6020000d8
:10008800661f0000e6020000e6020000e60200002b
:10009800e6020000e6020000e6020000e6020000b8
:1000a800e6020000e6020000e6020000941f0000dd
:1000b800e6020000e6020000e6020000e602000098
:1000c800e6020000e6020000e6020000e602000088
:1000d800e6020000e6020000e6020000e602000078
:1000e800e6020000e6020000e6020000e602000068
:1000f800e6020000e6020000e6020000e602000058
:10010800e6020000e6020000e6020000e602000047
:10011800e6020000e6020000e6020000e602000037
:10012800e6020000e6020000e6020000e602000027
:10013800e6020000e6020000e6020000e602000017
:10014800e6020000e6020000e6020000e602000007
:10015800e6020000e6020000e6020000e6020000f7
:10016800e6020000e6020000e6020000e6020000e7
:10017800e6020000e6020000e6020000e6020000d7
:10018800e6020000e6020000e6020000e6020000c7
:10019800e6020000e6020000e6020000e6020000b7
:1001a800e6020000e6020000e6020000e6020000a7
:1001b800e6020000e6020000e6020000e602000097
:1001c800e6020000e6020000e6020000e602000087
:1001d800e6020000e6020000e6020000e602000077
:1001e800e6020000e6020000e6020000e602000067
:1001f800e6020000e6020000e6020000e602000057
:10020800e6020000e6020000e6020000e602000046
:10021800e6020000e6020000e6020000e602000036
:10022800e6020000e6020000e6020000e602000026
:10023800e6020000e6020000e6020000e602000016
:10024800e6020000e6020000e6020000e602000006
:10025800e6020000e6020000e6020000e6020000f6
:020000040000fa
:100400002f5a21000eef27000e0188000000000087
:100410000c000700c05d2300010020000f00070052
:10042000000020000000e000020032000000020096
:10043000000000000c270200000000000040da006d
:100440000000fe00602820000000e00002003200f2
:10045000002020009001880000000600a102880012
:10046000800078000000eb001a003700e2804000b6
:1004700054a0b4009101ba00e280400054a0b4003e
:100480009102ba00e280400054a0b4000002eb00e8
:10049000472bde00f507b200a6018800602ce100c2
:1004a00008003a000049eb000201e80002003900b0
:1004b0003420ec0002f0a0008301e900f9ff3e00c7
:1004c000040037006128e100010032000082eb00e7
:1004d000040007001101ba000200e000e3ff3a0047
:1004e0000000060004d0a300e20f49001c00390000
:1004f000810278003549ba000201e80002003900a3
:100500003420ec0002f0a0008301e9000f0032006b
:100510002549ba000201e800020039003420ec004d
:1005200002f0a0008301e900080032000400e000ae
:100530000600320015c9ba000201e80002003900c5
:100540003420ec0002f0a0008301e9008180e80083
:1005500054a0b4000300e000e2ff3a0000000600ef
:100560009102ba00055978008301e900f7ff3200d3
:10057000c82ade00055978008301e900f3ff320044
:100580000400e000f1ff320011d9ba00eeff37009d
:100590000000fa00c028a900ffff37000000fa00a1
:1005a000c068a900ffff37000000fa00c048a9009a
:1005b000ffff37000000fa00c088a900ffff3700e6
:1005c0000000fa00c0a8a900ffff37000000fa00f1
:1005d000ffff37000000fa00ffff37000000fa00bd
:1005e000ffff37003600f800809fbe00829fbe00ec
:1005f000849fbe00869fbe000200fa00301180007a
:1006000000407800004f78008e00780040462100be
:1006100011190700e04f500002003a0040c0b3003b
:10062000004f78000168a9000080fa004f03be0067
:100630004f02be004f01be004f00be003600f90061
:10064000004006000000fa000188a9000080fa00be
:10065000004006000000fa00c303200012c0b300ef
:10066000e146210040462100bc18070021e2a90014
:1006700021a2a9002182a9002162a9000111800004
:10068000f0cf2f00008060000011880020e2a90058
:1006900020c2a90020a2a9002062a90001118000a7
:1006a00090ff2f0000806000001188002002a90048
:1006b000a00020004011880023e2a90023c2a90065
:1006c00023a2a9002362a9002342a9002322a90092
:1006d0002302a90011118000f0f32f0000806000b8
:1006e0001011880022a2a9002282a9002262a9007a
:1006f0002242a9002222a9002202a90000402400cf
:10070000704288000188a9002188a9000168a90019
:100710002168a80021e2a8002342a8000080fa0076
:10072000000006000200fa00004f78000000000000
:10073000111180000020200000806000e00f5000b8
:10074000fbff3a001e00fb00201188000080fa0029
:10075000000006000400fa00100798001e00900038
:10076000104f78001e0090000000e800100798006d
:100770001e407800e04f5000020032001e4078001a
:10078000e8ff07001e407800e04f5000f3ff3a00fa
:100790000080fa00000006000200fa00000f780056
:1007a0009e00780040462100441807000080fa00af
:1007b000000006000000fa0040462100df17070095
:1007c0000080fa00000006000000fa0080017800b6
:1007d00002003700b1597800040178000202e900f4
:1007e000e00f5100fbff3a000080fa000000060015
:1007f0000000fa008001780002003700815978007b
:10080000040178000202e900e00f5100fbff3a000a
:100810000080fa00000006000c00fa00889fbe006d
:1008200000047800f0ff2700500798008004eb00d8
:1008300019079800080f780028079800200c20005e
:100840003007980068015700ceb897000e00780076
:10085000060007001e007800094878001e001400fa
:100860004f04be000080fa00000006004200fa00bb
:10087000889fbe008a9fbe008c9fbe00201f9800ec
:1008800061179800721798000000eb00101f980085
:10089000d9033700ee1090008100e800611798003e
:1008a00052c2b300824f520007003a000001eb0031
:1008b000721f980006c3b30003c2b300b1c2b300f5
:1008c0006e10900014003700ae19900033019000b4
:1008d0000204b200050032009301780084497800d8
:1008e0002e1a9000030ae800070037000401fb00fd
:1008f000ae18900002007800ca03070000017800db
:10090000e10f4100bc0332009e1a90008502e8000e
:10091000151f9800b803370010427800d7c2b30003
:10092000874f52000b0032008002e800874f5200d0
:1009300005003c00834f520009003200814f5200f5
:100940000e003a0008003700864f52000b003a00b4
:10095000070037000230a0000000e800eeff37007b
:100960000200a000030037000210a00001003700c1
:100970000220a00005007800e7ff3700721f9800f2
:1009800060179800e2016100020032000200a1003d
:10099000721f98007e1c9000e80164000200320083
:1009a0000820a100781f98008401fb000303b10018
:1009b000e98f51000e003e00010020006e119000f2
:1009c000ea08b80001fd2f00808040001200fb0003
:1009d000808040005200fb000003b100e90f50008e
:1009e000f7ff360021179800621798000c003700b7
:1009f0000005eb002a179800a2c2b300824f5200f4
:100a000007003a00fe1590004b0078007b17980015
:100a100020179800ee1090008100e8006117980000
:100a20000001eb00021f9800e2c2b300ee1190003b
:100a3000934f110022003a007e1a900004e0a000bb
:100a4000741f9800644151008301e8006317980007
:100a50009342780082cf52000e003a007e1390003d
:100a6000c603780076179800071f980003047800e3
:100a70000804e800040178008801780012003700bb
:100a8000ea18b8000003b100810140000201e8004b
:100a9000020037008e1990006e1190009200fb004a
:100aa00000fd2f0001004000e90f5000f4ff360068
:100ab000031f9800820178007e1990000200370021
:100ac0007e199000ee119000b3427800054f780037
:100ad000c9c6b30089cf520024003200721f9800ab
:100ae000631798000f003c0036c6b30086cf520053
:100af000ab00320004003c00e0cf52004303320060
:100b000082c5b3000f00370042c6b30082cf520047
:100b1000c80032006541410082cf5200be003a0059
:100b2000c400370036c7b30086cf52002000320021
:100b300007003c00f2c6b30082cf52001100320021
:100b40000241e80082cf5200b3003a0011003700a2
:100b500052c7b30082cf5200b3003200634141005c
:100b600082cf5200ac003a000d00370070006100e7
:100b70000100280001003a0001012000010171007c
:100b8000d1ff37007e1d90000a60a0007a1f9800f8
:100b9000a8003700fe1d90000b50a0007b1f98009e
:100ba0007e1890000070a000701f9800a100370010
:100bb000fe1090004103780071179800361f9800ce
:100bc000e00f530002003a0023fe2700331f980075
:100bd0000002eb00441f9800020037008100e8008b
:100be000411f9800ce189000be1a9000058040006a
:100bf0000043eb00904f1300f8ff3a008e1b90006b
:100c0000e08f5300050032004e1c9000888f530087
:100c10000200310087047800491f98004e1a9000a6
:100c20000006eb002e159000840f550001003600e1
:100c300004065500fe1d9000e886650031003a006c
:100c40008c01780008c2b300ae1c90001000370081
:100c5000390090000004b20004003200190078004e
:100c600008487800800ce80005003700890078000b
:100c700000022000eb020700e10f400003003200f9
:100c80001e1890000000e800101f98008c017800ea
:100c90000c06e900e08f5100edff3a001900370023
:100ca000340090000004b200090032009401780082
:100cb000080178003240780080497800030ae80093
:100cc00002047800e04f50000a003a00120037009a
:100cd000080178003200fb000204780084007800ec
:100ce00004279800cf0207000e229000e10f400079
:100cf000090032009e1890008100e800111f980042
:100d0000050037003e1c9000ce1c90005e1d900038
:100d1000ee1d90002e1a9000090078008004e90072
:100d2000e00f5000deff3a00381f9800491f98007e
:100d30005a1f98006b1f9800e08f5600ae023200d9
:100d400011003700380090000004b20004003200a7
:100d5000180078000d487800000ce8000500370006
:100d60008800780000022000ae020700e10f40007a
:100d7000030032009e1a90008502e800151f9800bb
:100d800009067800020037000dc2b3002e1c900047
:100d90008c04e900e00f5600eaff3a0096023700a3
:100da0007e1390004604780076179800cfc4de00ca
:100db000090578008a0578000802be000a03be0013
:100dc0004822de004828dd0004027000044f78004d
:100dd000fe1890007086600009003200e04f52005b
:100de00007003200e14f420005003200144798002e
:100df0002847980022002000421f98000300370077
:100e00001847980013002000431f98000e02e800c6
:100e1000341f980079ff37003e1f9800160020000d
:100e2000461f980075ff3700fe1b9000070cb300ab
:100e3000771f98007e189000000cb2003f003a0027
:100e40007e1c9000e00f540005003d007e129000d3
:100e50004401be004400be00741798001000370023
:100e6000fe1a900070806200120032007e14900022
:100e70004803be0078179800460798005707980067
:100e8000180090004f80de006007980070079800ff
:100e90004e009000de0090006e019000fe01900078
:100ea000301f9800411f9800521f9800631f980040
:100eb0000b003700fe109000c102780071179800f7
:100ec00005047800cfc4de00090578008a057800a3
:100ed000381f9800491f98005a1f98006b1f9800f0
:100ee0003e189000ce1890005e199000ee19900008
:100ef000e00f5000e08f5800e00f5900e08f5900dc
:100f000036003d00fe1890003100b300711f9800bc
:100f10006022b8006033b8003e1c9000ce1c9000e8
:100f20005e1d9000ee1d90000804520089845a0056
:100f30000a055b008b855b0024003700fe1c9000d7
:100f4000e08f540005003d007e1290004401be0079
:100f50004400be007417980010003700fe1a90007d
:100f600070806200120032007e1490004803be00c0
:100f700078179800460f9800570f98008004eb00f0
:100f8000690f98000005eb007a0f98004e0890005a
:100f9000de0890006e099000fe099000301f980056
:100fa000411f9800521f9800631f98000b003700e4
:100fb000fe109000c10278007117980005047800b7
:100fc000090020000a0020000b002000381f9800b4
:100fd000491f98005a1f98006b1f98008e1c9000a4
:100fe000e08f54000d003a001a0020000a1f9800fc
:100ff0003e189000ce1890005e199000ee199000f7
:10100000e00f5000e08f5800e00f5900e08f5900ca
:10101000020032008000eb00011f98007e19900052
:10102000020cb2001217980006042000860f51002f
:101030003d00320003003c00e00f51000800320088
:1010400053003700050820009e119000858f510045
:101050001a003200050c2000858f51004c003a0028
:1010600012c0b300024f7800c14d21000f003700bd
:101070000200fb004300dd00008040003002be00a3
:101080002003be003e1c9000ce1c90005e1d900010
:10109000ee1d90000440e10005c8e10006d0e1002b
:1010a00007d8e1003a003900024fe8001e417800fd
:1010b000f44f5100eeff3a003500370012c0b30084
:1010c000024f780004012000050020006033b800c2
:1010d000110037003e1c9000ce1c90005e1d900059
:1010e000ee1d90000440e10005c8e10006d0e100db
:1010f00007d8e10026003900490020000402d00092
:101100008582d2000683d2008783d2008904e90059
:10111000faff3a00004fe8001e407800f04f500000
:10112000ecff3a001a00370012c0b300024f7800fb
:1011300084002000050020006033b8001100370053
:101140003e1c9000ce1c90005e1d9000ee1d900095
:101150000440e10005c8e10006d0e10007d8e10045
:101160000b003900390020000402d0008582d20033
:101170000683d2008783d2008904e900faff3a008f
:10118000004fe8001e407800f54f5000ecff3a0099
:101190001e03fb000e1d90008a0f530002003d004d
:1011a0000a4f7800040037008e1d9000868f55008e
:1011b00001003d00061f98002e109000e00f500027
:1011c00005003200fe189000e38260000200320049
:1011d0000000e90020179800050024007e19900007
:1011e0008502610009003200ae1190000e1a9000d5
:1011f000848f51000300340084815100231798002c
:10120000020037008002eb00251798001e03fb0048
:101210008003eb00071798002e149000860f5400ef
:10122000020034000603540006179800fe1c9000cc
:10123000e48264004c00320062836400e183640055
:10124000e00f53001b0032002e1d9000ba029000e8
:101250000504b200090032001a047800b6c2b300d7
:10126000e08f53000100320006c3e800064c78000e
:10127000ae1d9000880de8000a003700d60220005d
:10128000e08f530001003a000683e900ae18900099
:10129000060078006301070000017800e10f4100bb
:1012a000180032001e1890000000e800101f98007f
:1012b00014003700e08f530012003200ae18900087
:1012c000b10290000504b20005003200110378005d
:1012d00002c2b300024b78008608e800060037001f
:1012e000ae189000000220004e01070000017800b7
:1012f000e10f4100030032001e1990000201e800d6
:10130000121f98008e119000e08f510017013200db
:1013100008c3b300830678002e1e90003c009000a6
:101320000004b200040032001c0078000848780075
:10133000000ee800050037008c0078000003200054
:1013400038010700e10f4000030032001e1a900030
:101350000402e800141f98008d06e900efff3a0030
:101360000d179800010137008e129000e08f520097
:10137000180032007e1b9000e802630015003a005e
:1013800008c2b3008e1690002e1e90003c00900004
:101390000004b200040032001c0078000848780005
:1013a000000ee800050037008c00780000022000e5
:1013b0001c010700e10f4000030032009e1b90005b
:1013c0008703e800171f98008d06e900efff3a0039
:1013d0000d1798007e1c900062036400e103640016
:1013e000e00f53001b003200ae1c9000b9029000c9
:1013f0000504b2000900320019047800b6c2b30037
:10140000e08f53000100320006c3e800064c78006c
:101410002e1d9000080de8000a003700d6022000bb
:10142000e08f530001003a000683e900ae189000f7
:1014300006007800fb00070000017800e10f410082
:10144000ca0032009e1d90008b05e8001b1f98000b
:10145000c6003700e08f5300c40032002e18900001
:10146000b00290000504b2000500320010037800bd
:1014700002c2b300024b78000608e80006003700fd
:10148000ae18900000022000e6000700000178007e
:10149000e10f4100b50032009e1890008100e80085
:1014a000111f9800b10037000e1990000201e900e9
:1014b000021f9800000420009e119000808f5100b0
:1014c0008500320003003c00e08f5100080032002c
:1014d00092003700000820001e129000800f52007a
:1014e00066003200000c2000800f52008b003a0092
:1014f0008e1a90004328dd007e1b9000e00f530001
:101500002a003d00c74d2100008043003004be008a
:101510002005be0028179800391798004a17980030
:101520005b1798000802be000a03be003e18900038
:10153000ce1890005e199000ee199000110207007d
:10154000004f78000004fb00cfc4de0009057800de
:101550008a0578002e129000be1290004e13900063
:10156000de1390000800be000a01be0079020700e9
:101570000203be000002be003e189000ce1890008c
:101580005e199000ee19900004005000858058000c
:101590000601590087815900301f9800411f9800ab
:1015a000521f9800631f980031003700be00900062
:1015b000e08f50001f0032003e1e9000ce1e9000b3
:1015c000c24d2100000041003004be002005be00d5
:1015d0000801be000c00be004a010700004f780061
:1015e0000000fb00cf80de000801be0055010700af
:1015f0000002560081825e00040f9800150f9800cb
:101600008002eb00250f98000003eb00360f9800d6
:101610000e0c90009e0c90002e0d9000be0d9000c0
:10162000381f9800491f98005a1f98006b1f980098
:101630000f003700c94d21000080440010017800e0
:101640003e1d9000811f7800110009000285d8001e
:10165000cf007800a2002000811f7800110009004f
:101660000280d80001007800cf007800004f780099
:101670000bc3b3001ecf45002800370004fc270031
:101680002e009000e00f500001003a0014fd2700ea
:101690008e1890004209dd003e1c9000ce1c900088
:1016a0005e1d9000ee1d9000820278008502e90028
:1016b000050033008b05d1000a85d3008984d3004f
:1016c0000884d300f9ff37006f0064000000420077
:1016d000104f7800110037000e1b9000e330b80067
:1016e0003e1c9000ce1c90005e1d9000ee1d9000f0
:1016f000000278000402e900050033008b05d100e8
:101700000a85d3008984d3000884d300f9ff370009
:101710006740640005c3b300054f40002e1b9000d6
:10172000360090000004b200070032001601780075
:101730001e40780000497800020be800e04f50009e
:1017400006003a000f0037001e00fb00ae189000a4
:1017500034000700e10f40000a0032009e1b900099
:101760008703e800171f9800060037007e1c9000d2
:101770007004640038079800fe1c90000902b20053
:10178000290798000e1d9000e00f550046ff3a0013
:10179000fe1d900068816500170032000e10900059
:1017a000e00f50001400340008c2b3008006780037
:1017b0002e1e90003c0090000004b2000400320095
:1017c0001c00780008487800000ee800050037008b
:1017d0008c0078000002200012000700e10f40009a
:1017e000030032009e1890008100e800111f98004d
:1017f0008d06e900efff3a006e119000124278006a
:10180000044f7800e04f520022fc3a001e1890006e
:101810004f06be004f05be004f04be000080fa0018
:10182000000006000000fa00889fbe000104780056
:10183000b8009000628160008084eb003c003200c0
:10184000810178000320b2001801900002003a00e4
:10185000e00f510036003a000190a00031049800da
:1018600080047800f90fb200e00f510002003a0046
:1018700028009000000c7800ea8f540006003a001f
:10188000010078000008b20003003a0088007800e8
:10189000d0002000e3ff070018009000d80090005f
:1018a000810f50000b0032000000e8001004980087
:1018b0001800780009487800000ce80010c0b30058
:1018c000a1fe270080487800ea8f540018003a00f3
:1018d00005003700880078000940780018000700ec
:1018e0008004780012003700380090000010b20029
:1018f0000f00320018019000a800900048009000ee
:101900005100070098009000810f50000400320041
:10191000380090000003b300300498008084eb008e
:101920000000eb001004980028009000000c7800e4
:10193000090078004f04be000080fa000000060095
:101940000200fa00889fbe00004f78000104780072
:1019500038009000800078000104b20032003a00a4
:10196000e200600005003a000003b3003004980074
:10197000110498000080eb002c003700d804900080
:10198000e08f540006003a00120020008e0078001c
:10199000480090002c00070019049800220037002e
:1019a000a8009000e08f500008003a00d1fe270008
:1019b00021049800010c78002100200051049800b7
:1019c000110498000030a000300498001801900025
:1019d000a8009000480090001b000700280090001d
:1019e0008080eb00110498001e487800000ce8008d
:1019f000a0c0b3009e4f10000b003a0038009000ca
:101a00000010b2000800320018019000a8009000f9
:101a1000480090000c0007000000eb001004980044
:101a200028009000000c78001e00fb004f04be0050
:101a30000080fa00000006000000fa0000c0da0092
:101a40000080fa00000006000a00fa00e20f5000d1
:101a500021003e0080ff8300e10f500006003200ad
:101a6000852320004423200023232000002320007e
:101a7000e08f520004003a0085222000442220001a
:101a8000232220000022200006002800900363008b
:101a900002003a00870a7800100873000040200016
:101aa0001300600001003a0013a0a00002007800bb
:101ab00006003700930278000510b200fdff3200e7
:101ac000b102fb00050a78000000e900e00f5000b9
:101ad000f8ff3a000800370033002000030f7800b9
:101ae0001007980021079800320798000e00780030
:101af000d1ff07003e019000020078000080fa004c
:101b0000000006006022b800060220000000d0009d
:101b10008180d2000482d2008582d2000000a00021
:101b20000202520083825a00030031000202420086
:101b300083824a000000a1000603e900f3ff3a0097
:101b400000000600020ab900001bb9000200b8003c
:101b50008100420081004300000006000000fa00fe
:101b6000889fbe008a9fbe003004be002005be00d4
:101b70000404440085844c0006054d0087854d0013
:101b80000898be000a90be000440e10005c8e100cc
:101b900006d0e10007d8e1000200310068004000f3
:101ba0001008e8004f05be004f04be000080fa0098
:101bb000000006000000fa00889fbe008a9fbe0059
:101bc0008c1f7800000678003c04be002c05be0087
:101bd0000400540085805c0006015d0087815d0083
:101be000009ebe00029ebe00100020000440e100e6
:101bf00005c8e10006d0e10007d8e1000100390086
:101c00000000eb001c0e10004f0678004f05be00d0
:101c10004f04be000080fa00000006001200fa0027
:101c2000889fbe008a9fbe008c9fbe000205be003a
:101c30000004be00540798006507980076079800d6
:101c4000070f98000000eb0040079800300798004d
:101c50002007980010079800000f78000006780011
:101c6000fd032000ce0190003e0090000381410062
:101c7000ae009000e08f510003003d0021000700fe
:101c8000b6ff0700020037001e000700c9ff07006b
:101c9000ce009000e08f50000700350014002000b7
:101ca000050020006033b8000804720089847200c7
:101cb0000a0573008b8573000c06e8008d0f560033
:101cc000e8ff3400e08f500002003d0027000700cd
:101cd000a2ff07004eb89700e00f500002003a0044
:101ce0003e04be002e05be000800be000a01be0074
:101cf0004f06be004f05be004f04be000080fa0034
:101d000000000600cf01de0002817100420798004a
:101d10004f09de000000400000007100300798000d
:101d20001e0090004f01de008180400081007100a4
:101d3000210798001e027800cf20de00000040003e
:101d400000807000100798000800be000a01be0065
:101d50004f18de0004024200000f72000804440025
:101d600089844c000a054d008b854d005e02900071
:101d7000ee0290007e0390008e0b90000e00780023
:101d8000000006000000fa00881f780018002000fc
:101d9000881f7800a1ff07008f87e9004f047800b3
:101da0000080fa00000006000000fa00801feb002f
:101db0009aff07008f87e9000080fa000000060004
:101dc0000000fa00889fbe008a9fbe008c1f78002a
:101dd000e00f5000e08f5800e00f5900e08f5900ed
:101de0000f003d006044b8006055b800000054008a
:101df00081805c0002015d0083815d001c00200089
:101e00000820e10009a8e1000ab0e1000bb8e100f8
:101e10000d003d001a0007000006eb000a00370025
:101e20000006eb00e00f5200e08f5a00e00f5b006d
:101e3000e08f5b0004003d006044b8006055b800ce
:101e40000f0007001c002000ceff0700e00f560027
:101e5000060032006022b8006033b8000000520073
:101e600081805a0002015b0083815b004f0678008d
:101e70004f05be004f04be000080fa0000000600bf
:101e80000402540085825c0006035d0087835d00c8
:101e9000000006000000fa00889fbe008a9fbe0076
:101ea0008c1f7800e00f5000e08f5800e00f5900c1
:101eb000e08f59000d003d006044b8006055b80047
:101ec0000000540081805c0002015d0083815d00a0
:101ed0001c0020000820e10009a8e1000ab0e10090
:101ee0000bb8e1000d003d00080037000006eb00d4
:101ef000e00f5200e08f5a00e00f5b00e08f5b00c4
:101f000006003d006044b8006055b800040254006b
:101f100085825c0006035d0087835d00a2ff0700e9
:101f2000e00f5600060032006022b8006033b800af
:101f30000000520081805a0002015b0083815b0037
:101f40004f0678004f05be004f04be000080fa0027
:101f5000000006000000fa00889fbe008a9fbe00b5
:101f60008c1f78000006eb00e00f5000e08f580057
:101f7000e00f5900e08f590007003d006044b800b1
:101f80006055b8000000540081805c0002015d00d3
:101f900083815d001c002000e00f5200e08f5a009a
:101fa000e00f5b00e08f5b0007003d006044b8007d
:101fb0006055b8000402540085825c0006035d0091
:101fc00087835d000c00a2000d000700e00f5600a3
:101fd000060032006022b8006033b80000005200f2
:101fe00081805a0002015b0083815b004f0678000c
:101ff0004f05be004f04be000080fa00000006003e
:10200000889fbe008a9fbe008c9fbe000404b8005b
:102010000506b8008904460060854e000606b80033
:102020000a054600e0854e000706b8008b0546000d
:10203000040eb800890446000a854e00e0854d0074
:10204000050eb8000a0546008b854e00060eb80046
:102050008b0546000416b8000a0546008b854e0025
:102060000516b8008b054600041eb8008b05460017
:102070000800be000a01be004f06be004f05be00ac
:082080004f04be000000060041
:020000040000fa
:102088006272000069640000676500007465000002
:10209800636800006e6f00006c6f000067790000d5
:1020a80000410000542b0000534500004e4400003e
:1020b8004220000030300000303000003030000096
:1020c8003030000030300000303000003030000088
:1020d800303000000a000000257800000a000000e7
:1020e80041540000453000000a000000415400003f
:1020f8002b540000585000003d320000300a000008
:1021080000410000542b00005458000044520000c5
:102118003d310000300a000000410000542b00004f
:102128004e4900003d3100002c250000730a0000d4
:1021380000410000542b00004e4b00003d310000d0
:102148002c250000730a000000410000542b0000f9
:10215800414300004b3d0000380a000000410000e8
:10216800542b0000504e00003d3000000a000000d3
:10217800415400002b460000534200003d2500005a
:10218800640a000000410000542b00004a4f000080
:10219800494e00000a000000415400000a000000f7
:1021a80041540000490a000000410000545a000050
:1021b8000a00000041540000563100000a000000e7
:1021c80041540000264600000a0000004154000067
:1021d800265700000a00000041540000265600005f
:1021e8000a00000041540000265300000a000000c5
:1021f80041540000265200000a000000415400002b
:102208002b490000505200000a0000004154000011
:102218002b5300004d4f000044450000300a0000d9
:1022280000410000542b00004c4f000047300000d4
:102238000a000000415400002b46000052450000ef
:10224800510a000000410000542b000046530000d2
:10225800420a000000410000542b0000504e0000cc
:10226800300a000000410000542b000044490000df
:102278000a000000415400002b4e0000410a0000f3
:1022880000410000542b00004e5300004b0a000090
:1022980000410000542b0000445300004b0a00008a
:1022a80000410000542b00004e4b00000a000000c3
:1022b800415400002b4e0000490a00000041000074
:1022c800542b00004a5200000a000000415400004c
:1022d8002b4a0000424f00000a0000004154000051
:1022e8002b4e00004a4d00000a0000004154000037
:1022f8002b4e00004a5300000a0000004154000021
:102308002b4e00004c4300000a000000415400001e
:102318002b4c0000434300000a0000004154000019
:102328002b4c0000435400000a00000041540000f8
:102338002b4500004e4300000a00000041540000f5
:102348002b52000053530000490a000000410000ce
:10235800542b0000534e0000520a000000410000b8
:10236800542b0000445000000a00000041540000b3
:102378002b500000494e0000470a000000410000b1
:10238800542b000054580000445200000a0000007a
:10239800415400002b540000585000000a0000006f
:1023a800415400002b54000058460000203900001a
:1023b800313500000a000000415400002b54000091
:1023c8005846000020380000363800000a00000097
:1023d800415400002b54000058430000480a0000f4
:1023e80000410000542b0000544f0000410a000037
:1023f80000410000542b000054580000490a000016
:1024080000410000542b00005458000057310000d0
:102418000a000000415400002b460000534200000f
:10242800203100000a000000415400002b52000037
:1024380058440000520a000000410000542b0000dc
:1024480052580000460a000000410000542b0000ca
:1024580052580000490a000000410000542b0000b7
:1024680046450000430a000000410000542b0000cc
:1024780043520000430a000000410000542b0000b2
:1024880041440000523100000a000000415400009d
:102498002b410000434b00000a000000415400009b
:1024a8002b530000454e0000440a00000041000084
:1024b800542b0000534500004e440000420a00001f
:1024c80000410000542b0000534500004e4400001a
:1024d800480a000000410000542b0000534500004a
:1024e8004e440000490a000000410000542b00003f
:1024f80052450000435600000a0000004154000005
:102508002b52000045430000564300000a0000001b
:10251800415400002b540000584e00000a000000ef
:10252800415400002b520000584f00000a000000e0
:10253800415400002b530000440a000000410000f1
:10254800542b0000534c000045450000500a000081
:1025580000410000542b0000574d00000a00000005
:10256800415400002b570000490a000000410000b8
:10257800542b0000574400000a000000415400009a
:0c2588002b570000544f00000a00000018
:020000040000fa
:102594000000fa0040c6b300ecf2b700ecd2bf0072
:1025a4000080fa00000006000000fa000164a9009f
:1025b40081208000000c20000080700080208800b2
:1025c4008120800000fc2f00008060007000b300b8
:1025d400802088009120800080032000008070000b
:1025e4009020880012e4a80091208000f08f2f0032
:1025f40080806000005020000080700090208800df
:102604009120800080ff2f00008060000020a00047
:102614009020880012c4a8000080fa000000060080
:102624000000fa0000022000c0028800d8ff070062
:102634008302200022c1b300c10121002001210036
:10264400c510070001208000f08f2f0080806000fb
:10265400004020000080700000208800000000007e
:1026640001208000000e200080806000000820000f
:10267400808f5000faff3a00cbff0700ecd2bf0076
:102684000001fb00cf91de008002eb00140020006b
:102694001100200010002000610207000004a800bf
:1026a4001404a8001424a8001444a8001464a80066
:1026b4001484a80014a4a80014c4a8000121800054
:1026c40000ff2f00008060000000a00000218800af
:1026d40001218000f0f02f008080600000022000c3
:1026e400008070000021880001218000f00f2f007d
:1026f400808060000030200000807000002188008d
:1027040001218000f0ff2000808060000000240090
:1027140000807000002188001121800000ff2f003c
:10272400008060005000b300102188001121800057
:10273400f0f02f0080806000000620000080700010
:102744001021880011218000f00f2f00808060008c
:10275400007020000080700010218800ecd2bf00bf
:102764000000fb00f17f2000010060004500dd0057
:1027740001228000ff806000008070000022880039
:10278400ecd2bf000000fb00f17f200001006000dc
:102794004500dd0021228000ff8060000080700081
:1027a40020228800ecd2bf000000fb00f17f200053
:1027b400010060004500dd0041228000ff806000d0
:1027c4000080700040228800ecd2bf000000fb00b3
:1027d400f17f2000010060004500dd0061228000df
:1027e400ff8060000080700060228800ecd2bf008f
:1027f4000000fb00f17f2000010060004500dd00c7
:1028040081228000ff8060000080700080228800a8
:10281400ecd2bf000000fb00f17f2000010060004b
:102824004500dd00a1228000ff8060000080700070
:10283400a0228800ecd2bf000000fb00f17f200042
:10284400010060004500dd00c1228000ff806000bf
:1028540000807000c0228800c1208000c0ff2f00cb
:1028640000806000c0208800c120800030ff2f005d
:1028740000806000c0208800c1208000f0fc2f0090
:1028840000806000c0208800c1208000f0f32f0089
:1028940000806000c0208800c1208000f0cf2f009d
:1028a40000806000c0208800c1208000f03f2f001d
:1028b40000806000c0208800c1208000f0ff2c0050
:1028c40000806000c0208800802180007f006000bc
:1028d400802188003064a90081218000c0ff2f007e
:1028e400008060008021880031208000f0ff2100fa
:1028f4008080600000002600008070003020880086
:102904003120800000fe2f0000806000302088000d
:102914000004a90030e4a80031e4a90032e4a900cd
:1029240033e4a90034e4a90035e4a90036e4a9009d
:1029340037e4a900802180003000b30080218800a2
:1029440081218000f0cf2f008080600000202000d3
:10295400008070008021880001208000f08f2f000b
:10296400008060000020880000000000012080003a
:10297400000e200000806000e00f5000fbff3a00d2
:10298400b4040700c80407000080fa000000060031
:102994000000fa000002eb008000eb00f2ff2f00c1
:1029a400e3ff21000000eb00f0020700454424008f
:1029b400343323002322220012112100810020003d
:1029c4000000eb00ef0307000080fa00000006009f
:1029d4003200fa00889fbe008a9fbe008c9fbe0012
:1029e400400f98000000eb00000f78000000eb009f
:1029f4001007980066004700220120008000eb00c9
:102a04007af7070008f02700090020004e0890001c
:102a14004400dd0001002000808fd2008180d200bc
:102a24000000780000f0a1000801d0008001d0006f
:102a3400030041004220a80081804c004200a9000c
:102a44004220ae004200a8000080d3009301800021
:102a54000101780092018800000000000000780065
:102a640010007800200798009301880000000000ff
:102a74002e009000610f60002e0090006200600044
:102a8400100798001e007800e00f50002a003a005a
:102a94000af027000b0020004e0890004400dd00df
:102aa40001002000808fd2008180d20000007800d5
:102ab40000f0a1000a02d0008002d000050042000c
:102ac4004220a80081804d004200a9004220ae00af
:102ad4004200a8000080d3009201800081017800a8
:102ae4009301880000000000000078009000780046
:102af4009201880000000000c0ff210000806000f7
:102b04004200de0001002000500798006107980091
:102b1400ae009000c0ff2100008060004200de0093
:102b240001002000500798006107980040c0b300de
:102b3400004f9800610037002e0090000100200033
:102b4400c2ff210003002000800278000102780007
:102b54008200780003007800818262000000620035
:102b640001002000c000dd00000020000001be00c4
:102b74006128b8000001710081817100c010dd007e
:102b84000000200050079800610798005e02900042
:102b9400ee0290000cf027000d0020004e0890007b
:102ba4004400dd000080e80001002000808fd20096
:102bb4008180d2000000780000f0a1000c03d00056
:102bc4008003d000070043004220a80081804e000b
:102bd4004200a9004220ae004200a8000080d300b9
:102be4009301800001017800920188000000000038
:102bf40000007800100078009301880000000000b5
:102c04004600dd00010020000400400085804800eb
:102c140050079800610798005e029000ee02900051
:102c240000f02700500f980002002000620f980067
:102c34004e0890004400dd006400400001002000c4
:102c4400808fd2008180d2000000780000f0a100c3
:102c5400fa0347001703be000601d0008001d0002c
:102c6400030041004220a80081804b004200a900db
:102c74004220ae004200a8000080d30093018000ef
:102c84000101780092018800000000000000780033
:102c94001000780093018800000000004a00de0064
:102ca400010020000400400085804800500798007f
:102cb4006107980030c0b300004f98001e009000d8
:102cc400e10f500003003a0020c0b30070479800a1
:102cd400c400370010c0b3007047980004f0270008
:102ce400740f980005002000051798004e08900006
:102cf4004400dd006600400001002000808fd20007
:102d04008180d2000000780000f0a100fe0347009b
:102d14001703be000601d0008001d000030041006b
:102d24004220a80081804b004200a9004220ae004e
:102d34004200a8000080d300920180008101780045
:102d44009301880000000000000078001000780063
:102d54002007980092018800000000002e009000d7
:102d640000407800604f98002e0090004800de007c
:102d740000407800704f980004f027001417980062
:102d840005002000251798004e0890004400dd003f
:102d94006800400001002000808fd2008180d200b2
:102da4000000780000f0a100270220008e83430079
:102db4001703be000601d0008001d00003004100cb
:102dc4004220a80081804b004200a9004220ae00ae
:102dd4004200a8000080d3009201800081017800a5
:102de40093018800000000000000780010007800c3
:102df4002007980092018800000000002e00900037
:102e040000407800005798002e0090004800de0033
:102e1400004078001057980004f0270034179800f9
:102e240005002000451798004e0890004400dd007e
:102e34006a00400001002000808fd2008180d2000f
:102e44000000780000f0a100670220008e83430098
:102e54001703be000601d0008001d000030041002a
:102e64004220a80081804b004200a9004220ae000d
:102e74004200a8000080d300920180008101780004
:102e84009301880000000000000078001000780022
:102e94002007980092018800000000002e00900096
:102ea40000407800205798002e0090004800de0073
:102eb400004078003057980004f027005417980019
:102ec40005002000651798004e0890004400dd00be
:102ed4006c00400001002000808fd2008180d2006d
:102ee4000000780000f0a100a70220008e834300b8
:102ef4001703be000601d0008001d000030041008a
:102f04004220a80081804b004200a9004220ae006c
:102f14004200a8000080d300920180008101780063
:102f24009301880000000000000078001000780081
:102f34002007980092018800000000002e009000f5
:102f440000407800405798002e0090004800de00b2
:102f5400004078005057980004f027007417980038
:102f640005002000051f98004e0890004400dd0075
:102f74006400400001002000808fd2008180d200d4
:102f84000000780000f0a100e70220008e834300d7
:102f94001703be000601d0008001d00003004100e9
:102fa4004220a80081804b004200a9004220ae00cc
:102fb4004200a8000080d3009201800081017800c3
:102fc40093018800000000000000780010007800e1
:102fd4009201880000000000004078006f4060000b
:102fe40060579800660047008000780020012100a7
:102ff400980e0700e04f500004003a0010c0b300e0
:10300400cef4b700400120001f1107004f06be0098
:103014004f05be004f04be000080fa000000060009
:103024002000fa00200f9800320f9800430f9800f8
:10303400510f9800640f9800750f98006000b80055
:10304400008fbe006000b800200798003107980088
:103054006000b80040079800510798000004a800d9
:103064002e0890000000400000004000800078001e
:103074000044200000804000600798002e08900063
:103084004280de0000004000800078000042200002
:1030940000804000700798002e0890004380de00f6
:1030a4000000400080007800804120000080400043
:1030b400000f980040412000100f98005e08900017
:1030c400e10f500049003a003e099000ce099000fb
:1030d400f0ff2f00010020000202780003017800b5
:1030e40080017800010078000302620000006100a2
:1030f40001002000c000dd00000020000001be002f
:103104006120b800000171008181710022079800dc
:10311400330798003e089000ce0890004088de00f7
:10312400cf80de000001be0030002000010020003e
:103134000202780003017800800178000100780021
:10314400030262000000610001002000c000dd00f5
:10315400000020000001be006120b80000017100e1
:103164008181710042079800530798003e0890003f
:10317400ce0890004288de00cf80de000001be0051
:10318400f07f200001002000020278008301780013
:1031940000017800010078000201620000806100f3
:1031a40001002000c000dd0000002000008fbe00f0
:1031b4006110b8001e1f70001e9770001e0078007a
:1031c400c500dd004e00900000804000e800400093
:1031d4006e009000010878006e0090000080e80006
:1031e400ae00900001087800190037003e099000f5
:1031f400ce099000f07f2000010020000202780038
:103204008301780000017800010078000201620067
:103214000080610001002000c000dd0000002000eb
:10322400008fbe006110b8001e1f70001e97700052
:103234001e007800c500dd006e00900001087800d3
:103244006e0090000080e8008000eb000108780028
:103254007e009000900078002e08900063006000cb
:103264004200dd00f20020000010dd000080ea00d2
:10327400808060007e009000010878002e08900095
:10328400630060004200dd00ee0890008008dd006d
:103294007e00900010007800808070007e00900016
:1032a400010878000e089000900078002e08900025
:1032b4006700600000004000320020000010dd00c4
:1032c4000080ea00808060000e0890000108780009
:1032d4002e0890006700600000004000fe08900087
:1032e4008008dd000e0890001000780080807000d7
:1032f4000e08900001087800110020002e089000ac
:103304000008dd00800078001e089000100078009e
:10331400808070001e089000010878000004a90055
:103324000080fa00000006001800fa0070079800f8
:10333400020f9800130f9800210f9800340f980083
:103344006000b800008fbe006000b800200798003d
:10335400310798006000b8004007980051079800b2
:103364000004a8007e00900000004000000040001f
:10337400800078000043200000804000600798002f
:103384003e089000e10f500053003a000e099000ef
:103394009e099000f0ff2f00010020000202780037
:1033a40003017800800178000100780003026200c4
:1033b4000000610001002000c000dd0000002000ca
:1033c4000001be006120b80000017100818171001c
:1033d40022079800330798000e0890009e0890007a
:1033e4004088de00cf80de000001be0030002000f7
:1033f40001002000020278000301780080017800b7
:103404000100780003026200000061000100200056
:10341400c000dd00000020000001be006120b800f3
:1034240000017100818171004207980053079800e0
:103434000e0890009e0890004288de00cf80de00d7
:103444000001be00f07f200001002000020278008d
:103454008301780000017800010078000201620015
:103464000080610001002000c000dd000000200099
:10347400008fbe006110b8001e1f70001e97700000
:103484002e089000e10f500008003a001e0078005a
:10349400c500dd004e00900000804000e8004000c0
:1034a4006e00900001087800060037001e007800c6
:1034b400c500dd004e009000808040006e0090004a
:1034c400010878006e0090000080e800ae009000d3
:1034d40001087800220037000e0990009e09900030
:1034e400f07f2000010020000202780083017800b0
:1034f4000001780001007800020162000080610090
:1035040001002000c000dd0000002000008fbe008c
:103514006110b8001e1f70001e9770002e089000e6
:10352400e10f500006003a001e0078004500dd005f
:10353400e80040006e0090000108780004003700a5
:103544001e007800c500dd006e00900001087800c0
:103554006e0090000080e8008000eb000108780015
:103564000004a9000080fa00000006002200fa000e
:10357400889fbe008a9fbe008c9fbe00400f9800ab
:10358400520f9800630f9800710f98000417980069
:103594006000b800008fbe006000b80020079800eb
:1035a400310798006000b800400798005107980060
:1035b4006000b80060079800710798006000b800c8
:1035c400000f9800110f98006000b800200f9800b9
:1035d400310f98007e089000e00f50004600320042
:1035e4005e099000ee099000f00320000100200025
:1035f400020278000301780080017800010078005d
:10360400030262000000610001002000c000dd0030
:10361400000020000001be006120b800000171001c
:1036240081817100020f9800130f98005e089000ca
:10363400ee0890004a09dd004600de00000071003b
:10364400c688de000001be00f0ff2000010020005b
:1036540002027800030178008001780001007800fc
:10366400030262000000610001002000c000dd00d0
:10367400000020000001be006120b80000017100bc
:1036840081817100220f9800330f98005e0890002a
:10369400ee0890004288de00cf80de000001be000c
:1036a400f07f20000100200002027800030178006e
:1036b40080017800010078000302620000006100cc
:1036c40001002000c000dd00000020000001be0059
:1036d4006120b800000171008181710062079800c7
:1036e400730798002e089000be08900020079800e9
:1036f40031079800130037005e099000ee0990002e
:10370400f07f20000100200002027800030178000d
:10371400800178000100780003026200000061006b
:1037240001002000c000dd00000020000001be00f8
:103734006120b80000017100818171006207980066
:10374400730798000e109000e10f50001a003a0021
:103754006e009000fe0090004209dd00ce01de0004
:10376400830171004201dd007e0890000100200009
:1037740000007100818071000001be000210a000f1
:10378400028fbe000e0890009e0890004a09dd00da
:10379400c601de00830171004a01dd000020200023
:1037a4000100200000007100818071004007980032
:1037b40051079800120037006e009000fe00900040
:1037c4004209dd00ce01de00830171004201dd000b
:1037d4007e08900001002000001f71000197710015
:1037e4000e0990009e0990004a18dd00c610de0004
:1037f400810070004a10dd004007980051079800ce
:103804007e089000e00f5000180032001e0078007f
:10381400800178000310a0004e0890004400dd00f1
:103824006100b9000cf027000d0020000002d00058
:103834000c01d000020042004220a8008d80480004
:103844004200a9004220ae004200a8000080d3003c
:10385400a20180000102780000007800a401880021
:1038640003087800a2018800150037009e01780043
:103874004e0890004400dd006100b9000af0270002
:103884000b0020000002d0000a01d0000200420018
:103894004220a8008b8048004200a9004220ae00cc
:1038a4004200a8000080d300a20180000102780039
:1038b40000007800a401880003087800a2018800b1
:1038c400ae0190004e0890004400dd000080e80046
:1038d4006100b90008f02700090020000002d000b0
:1038e4000801d000020042004220a800898048005c
:1038f4004200a9004220ae004200a8000080d3008c
:10390400a20180000102780000007800a401880070
:1039140003087800a2018800ce0190004e089000b0
:103924004400dd00640040006100b90006f0270097
:10393400070020000002d0000601d000020042006f
:103944004220a800878048004200a9004220ae001f
:103954004200a8000080d300a20180000102780088
:1039640000007800a401880003087800a201880000
:103974004f06be004f05be004f04be000080fa0093
:10398400000006001400fa00889fbe008a9fbe0053
:103994008c9fbe00000f7800110798002207980042
:1039a40033079800440798005507980000f0270053
:1039b4006007980002002000720798001e0078003b
:1039c4004400dd006400400001002000808fd2002c
:1039d4008180d2000000780000f0a100ec024700d2
:1039e4001502be000403d0008003d000070043008a
:1039f4004220a80081804a004200a9004220ae0073
:103a04004200a8000080d300920180008101780068
:103a14009301880000000000000078009000780006
:103a2400920188000000000000ff2f0080806000e9
:103a34001e009000808140001e0078004400dd00dc
:103a4400640040006100b90002f02700020f9800f2
:103a540004002000140f9800f00347001703be0071
:103a64000001d0000602d000040041004220a8005a
:103a7400878048004200a9004220ae004200a8000e
:103a84000080d300a20180000102780000007800c9
:103a9400a401880003087800a20188001e007800b1
:103aa4004400dd00660040006100b9000cf027000e
:103ab4000d0020008002d0000c03d00006804200dc
:103ac4004220a8008d8048004200a9004220ae0098
:103ad4004200a8000080d300ae019000a201800043
:103ae4000102780000007800a4018800030878002f
:103af400a20188001e0078004400dd006800400038
:103b04006100b9000af027000b0020008003d000f8
:103b14000a01d000028043004220a8008b804800a4
:103b24004200a9004220ae004200a8000080d30059
:103b3400be019000a201800001027800000078001c
:103b4400a401880003087800a20188001e00780000
:103b54004400dd006a0040006100b90008f027005d
:103b6400090020008001d0000802d0000480410038
:103b74004220a800898048004200a9004220ae00eb
:103b84004200a8000080d300ce019000a201800072
:103b94000102780000007800a4018800030878007e
:103ba400a20188001e0078004400dd006c00400083
:103bb4006100b90006f02700070020008002d00051
:103bc4000601d000028042004220a80087804800fd
:103bd4004200a9004220ae004200a8000080d300a9
:103be400de019000a201800001027800000078004c
:103bf400a401880003087800a20188004f06be00d3
:103c04004f05be004f04be000080fa00000006000d
:103c14000400fa00100798000004a80040412000a6
:103c2400000f78001e007800900078001200200039
:103c34001e0090000010dd000080ea00808060001b
:103c44001e007800010878000004a9000080fa0032
:103c5400000006000000fa000000eb00805f88000e
:103c64000000eb00905f88000002220000588800ea
:103c7400204420006058880070002000705888009c
:103c8400600420001058880000002000305888008c
:103c940000f027002058880001eba8002088a80025
:103ca4000080fa00000006000000fa000000eb00ab
:103cb400805f88000000eb00905f8800015980005d
:103cc400f0fc2f0080806000000220000080700063
:103cd4000059880001598000c0ff2f000080600057
:103ce40000598800004420006059880000f0270033
:103cf40020598800000020003059880070002000fe
:103d04007059880020022000105988002308a80058
:103d140021eba8000080fa00000006000000fa0071
:103d2400d0d4bf00e04f500005003200d0d4bf0013
:103d34000040e900d0f4b70010c0b3000100370020
:103d44000040eb000080fa00000006000200fa00c8
:103d5400000f78009e00780020012100d60a070099
:103d64000080fa00000006003200f800881f780086
:103d74000820200098018800000000004f0478000b
:103d84000000fa000088a9000080fa003200f9005f
:103d9400004006000000fa000004a9000021800091
:103da40062006000e00f500006003200d0d4bf0073
:103db4000040e800d0f4b7001000200004fb070026
:103dc4002024a9000021800064006000e00f50005e
:103dd40006003200d0d4bf000040e800d0f4b700a1
:103de40020002000fafa07002044a90000218000e6
:103df40068006000e00f500006003200d0d4bf001d
:103e04000040e800d0f4b70030002000f0fa0700ca
:103e14002064a9000021800070006000e00f5000c1
:103e240006003200d0d4bf000040e800d0f4b70050
:103e340040002000e6fa07002084a9000121800048
:103e44000002200000806000e00f500006003200f5
:103e5400d0d4bf000040e800d0f4b70050002000e8
:103e6400dbfa070020a4a90001218000000420003f
:103e740000806000e00f500006003200d0d4bf0084
:103e84000040e800d0f4b70060002000d0fa07003a
:103e940020c4a900012180000008200000806000e7
:103ea400e00f500006003200d0d4bf000040e8000c
:103eb400d0f4b70070002000c5fa070020e4a90080
:103ec4000080fa00000006003600f800809fbe0063
:103ed400829fbe00849fbe00869fbe003200f80011
:103ee4000020200090018800000000000000fa007b
:103ef40000218000e00f500001003200a5ff070000
:103f04000308a9000080fa003200f9004f03be0044
:103f14004f02be004f01be004f00be003600f90044
:103f240000400600801f78000000fa000468a90021
:103f34005020800061006000e00f5000010032005a
:103f44000a04a9005020800062006000e00f5000c5
:103f5400010032000a24a9000080fa004f00780012
:103f6400004006000400fa00000f780011079800d2
:103f74001e0078006101b9000002eb008000eb0034
:103f84000000eb0079fd07001e0090008002eb00aa
:103f94000002eb008001eb0000017800210020000a
:103fa4000000eb0077fe07000080fa000000060026
:103fb4000a00fa0040079800a0a680000000e8006c
:103fc400a0a688004e009000b00090002000900051
:103fd400008fbe004e00900068004000200798004b
:103fe4004e009000005090000080fb0030079800c5
:103ff400be0190002e0190001e00be000b000700c1
:104004000080fa00000006000000fa008021800011
:10401400e800600010c0b300e08f500001003200df
:104024000040eb000080fa00000006001400fa00d3
:104034006007980071079800020f9800130f98000a
:104044000000eb00000f78000000eb001007980060
:104054000000eb00200798000000eb0030079800f8
:104064006000b80040079800510798001800370016
:1040740014c0b3004e019000de019000f0692800e6
:1040840011002000800f5100818f590001003e0073
:104094000042eb004e009000de0090006100400002
:1040a400e08048004007980051079800e04f520014
:1040b400050032008021800059f9070050012000da
:1040c400f10c07006b0037000000eb00000f7800d4
:1040d4008021800068006000e00f5000e4ff3a0097
:1040e400709780000002eb00110020006e01900028
:1040f400fe0190001dfd07001e089000e00f500017
:10410400060034000e089000104078008000fb0088
:10411400f00f2000008060001e0f70001e08900049
:10412400e10f5000060034000e0890000000e80083
:10413400104078000000fb004800dd001e0f7000f6
:104144001e089000e20f5000090034000e08900091
:104154000080e800104078008000fb00f00f200091
:10416400008060009e00900000807000100798009e
:104174001e089000e30f5000080034000e08900061
:1041840063004000104078000000fb004800dd00a0
:104194009e00900000807000100798001e08900098
:1041a400e40f5000090034000e0890006400400041
:1041b400104078008000fb00f00f200000806000b9
:1041c400ae00900000807000200798001e08900048
:1041d400e50f5000080034000e0890006500400010
:1041e400104078000000fb004800dd00ae009000a5
:1041f40000807000200798001e089000e60f500011
:10420400090034000e089000660040001040780059
:104214008000fb00f00f200000806000be009000d2
:1042240000807000300798001e089000e70f5000cf
:10423400080034000e089000670040001040780029
:104244000000fb004800dd00be009000008070000c
:10425400300798009e08900070978000be0290007e
:104264002e0290009e0190001e017800c5fd0700fb
:104274003064a8000080fa00000006000600fa007e
:1042840010079800210798000000eb00000f780049
:104294000d0037001e007800c200dd00203d210023
:1042a400008040001001be001e009000ae0090008f
:1042b400800f5100818f590002003a001e007800df
:1042c400050037001e0fe8001e007800e70f5000bd
:1042d400f0ff34000000eb000080fa00000006004c
:1042e4000600fa003e000700100798002107980016
:1042f4000000eb00000f78000d0037001e0078006e
:10430400c200dd00203d2100008040001001be00fd
:104314001e009000ae009000800f5100818f590064
:1043240002003a001e007800050037001e0fe80066
:104334001e007800e70f5000f0ff34000000eb008f
:104344000080fa00000006000000fa000ef097005a
:10435400e54f500009003e000ef097000080fb007e
:10436400f200b80080007800203021000080400076
:10437400f80057002201200012f107000ef0970008
:104384000080fb000080fa00000006000000fa0034
:1043940062fe0700e04f50000e00320090a680003d
:1043a4000000e80090a68800002f210067fe0700a7
:1043b400f287470072805700012f2100080009008e
:1043c400311878002001b100dfff0700f2875700a1
:1043d400010037000000eb000080fa000000060036
:1043e4000000fa00c2988000d3988000f0ff2f00ec
:1043f400f1002000020278000301780080017800b7
:104404000100780003026200000061000100200046
:10441400c000dd00000020000001be006120b800e3
:1044240000017100818171000200be000080fa0069
:10443400000006000000fa0002003700002f2100ef
:1044440042fe070035fe0700e04f5000fbff3a0034
:10445400020007000080fa00000006000200fa00d3
:104464000000eb00000f7800090037001e00780000
:10447400f200b80080007800203021000080400065
:1044840022012000f10f2000d8f007001e0fe800e1
:104494001e007800e90f5000f4ff34000080fa0099
:1044a400000006000400fa0010079800b7ff070098
:1044b400e10f500075003a0001322100914078006c
:1044c40030c5b30080cf500014003a0011322100ef
:1044d4009140780000c3b30080cf50000f003a0031
:1044e400213221009140780070c4b30080cf500085
:1044f4000a003a0023d3bf00e04f500007003a00ff
:1045040077ff070080004000204421000080400025
:104514008000eb00010878005c00370001322100c4
:104524009140780030c6b30080cf500035003a0087
:1045340021d3bf00f04f500032003a002132210055
:104544009140780020c4b30080cf50002d003a0081
:10455400a3ff0700409e8800519e88000000eb00e6
:10456400000f7800230037001e007800c200dd0031
:10457400203d2100008040001001be00409e8000cc
:10458400519e8000800f5100818f590002003a0033
:10459400000000003d0037001e007800c200dd006e
:1045a400203d2100008040001000be00e00f5000bc
:1045b400e08f58000e003a00409e8000519e80001b
:1045c4001e017800c211dd00223d2100028141005c
:1045d4000089be001e00780080004000203f2100ba
:1045e400008040008000eb0001087800b300370031
:1045f4001e0fe8001e007800e70f5000daff3400b9
:1046040022003700013221009140780040c4b300f9
:1046140080cf50000a003a00113221009140780006
:1046240000c3b30080cf500005003a0021322100be
:104634009140780030c5b30080cf500013003200a1
:10464400013221009140780030c4b30080cf500083
:104654000a003a00113221009140780000c6b300ec
:1046640080cf500005003a002132210091407800ab
:1046740070c4b30080cf50000400320070012000e9
:10468400000f780040002000000f78003fff070073
:10469400e20f500039003a000132210091407800c5
:1046a40030c5b30080cf50001d003a001132210004
:1046b4009140780000c3b30080cf500018003a0046
:1046c400213221009140780070c4b30080cf5000a3
:1046d40013003a0002ff0700800078002fd3bf00c8
:1046e4000081fb00818040002044210000804000c4
:1046f40002087800fafe07008000400020442100f0
:104704000080400010007800e00f500002003200ea
:1047140040002000000f780050ff0700170037000a
:10472400013221009140780030c5b30080cf5000a1
:1047340012003a00113221009140780010c3b300f6
:1047440080cf50000d003a002132210091407800c2
:1047540070c4b30080cf500008003a00e0fe0700a8
:10476400800078002fd3bf000081fb0081804000cf
:10477400203f2100008040000208780003ff07006a
:10478400e30f50002f003a000132210091407800dd
:1047940030c4b30080cf500029003a001132210008
:1047a4009140780000c6b30080cf500024003a0046
:1047b400213221009140780070c4b30080cf5000b2
:1047c4001f003a00c6fe0700000f780023d3bf0085
:1047d4008080fb001e00780000014000203f210083
:1047e400000041000108780035d3bf000080fb00c1
:1047f400c800dd0034d3bf000080fb00808070005f
:104804001e0078000001400020402100000041000b
:104814000108780042d3bf000080fb00c800dd001f
:1048240041d3bf000080fb00808070001e00780030
:1048340000014000204121000000410001087800ef
:1048440006ff0700840a070021032000810f50009f
:104854001a0034000000eb00930a07001e009000c9
:10486400cf80de004200200003002000820f5000b1
:10487400838f580011003e00000601000400370039
:10488400060037000700370008003700090037002a
:10489400f2fe07003103070008003700effe0700af
:1048a40006003700edfe070004003700ebfe0700aa
:1048b40002003700e9fe0700000000000080fa0053
:1048c400000006000000fa00abd4bf000080fa002c
:1048d400000006000000fa00aad4bf000080fa001d
:1048e400000006000000fa00146ea9004006200033
:1048f40001002000430a0700000000002c0a070002
:10490400e00f5000e08f5800fcff3a00146ea8003e
:1049140080252000010020003a0a07000000000062
:10492400230a0700e00f5000e08f5800fcff3a0014
:104934009fef0700ee0507000080fa000000060064
:104944000200fa00442ea800440ea800c202070088
:10495400e0012000010020002a0a070000000000f6
:10496400130a0700e00f5000e08f5800fcff3a00e4
:104974000000eb00000f7800030037003000200037
:10498400c8fe07001e0fe8001e007800e70f500065
:10499400faff3400909e8000a19e8000e00f50003a
:1049a400e08f58000b003a00442ea900440ea800e2
:1049b4004001200001002000120a0700000000004e
:1049c400fb090700e00f5000e08f5800fcff3a009d
:1049d400dcff3700000000000080fa000000060041
:1049e4000800fa0020079800310798002e00900074
:1049f400be00900021fe0700100798000000eb00a5
:104a0400000f7800230037000000eb00000f78004f
:104a14001c0037001e0178002e009000be0090009c
:104a24003a0407004001200001002000f5090700b6
:104a340000000000de090700e00f5000e08f58007e
:104a4400fcff3a003000200096fe07001e00900094
:104a540080004000203f21000080400010007800ca
:104a6400e00f5000060032001e009000800040005d
:104a7400203f210000804000100078000d00370026
:104a84001e0fe800e00f20009e007800808f500089
:104a9400e0ff34001e00900080004000203f210011
:104aa4000080400010007800e00f5000d6ff320074
:104ab4000000eb000080fa00000006000200fa008b
:104ac4000000eb00000f78001c0037001e00780087
:104ad400c200dd00203d2100008040001000be0027
:104ae400e00f5000e08f5800130032001e007800e1
:104af40080004000203f2100008040001001780029
:104b04001e007800c200dd00203d2100008040002e
:104b14001000be00540307004006200001002000de
:104b2400b809070000000000a1090700e00f5000c9
:104b3400e08f5800fcff3a001e0fe8001e007800ca
:104b4400e70f5000e1ff34000080fa000000060087
:104b54000200fa000000eb00000f78001c00370090
:104b64001e007800c200dd00203d210000804000ce
:104b74001000be00e00f5000e08f58001300320018
:104b84001e00780080004000203f2100008040008b
:104b9400100178001e007800c200dd00203d2100d5
:104ba400008040001000be006b0307004006200098
:104bb4000100200093090700000000007c090700a1
:104bc400e00f5000e08f5800fcff3a001e0fe80091
:104bd4001e007800e70f5000e1ff34000080fa0067
:104be400000006000200fa000000eb00000f78004d
:104bf4001e0037001e007800c200dd00203d2100a9
:104c0400008040001000be00e00f5000e08f58000c
:104c1400150032001e00780080004000203f210073
:104c240000804000100178001e007800c200dd0002
:104c3400203d2100008040001000be00b3030700a7
:104c4400a0002000010020006e0907000000000001
:104c540057090700e00f5000e08f5800fcff3a00ae
:104c6400300020000ffe07001e0fe8001e00780031
:104c7400e70f5000dfff34000080fa000000060058
:104c84000200fa000000eb00000f78001500370066
:104c94001e007800c200dd00203d2100008040009d
:104ca4001000be00e00f5000e08f58000c003200ee
:104cb4001e007800c200dd00203d2100008040007d
:104cc4001000be0046ff0700800078001e00780038
:104cd40000014000203f210000004100010878004d
:104ce4001e0fe8001e007800e70f5000e8ff3400b4
:104cf4000080fa00000006000200fa000000eb0049
:104d0400000f7800190037001e0078008000400072
:104d140020402100008040008000eb000108780062
:104d24001e007800800040002041210000804000e7
:104d34008000eb00010878001e007800800040002d
:104d440020422100008040008000eb000108780030
:104d54001e007800800040002043210000804000b5
:104d64008000eb00010878001e0fe8001e007800a8
:104d7400e70f5000e4ff34000080fa000000060052
:104d84000200fa000000eb00000f78001c0037005e
:104d94001e007800c200dd00203d2100008040009c
:104da4001000be00e00f5000e08f580013003200e6
:104db4001e00780080004000203f21000080400059
:104dc4001000780000407800804178000001eb007a
:104dd4008000eb0000c0eb003b040700c05d200036
:104de400010020000709070000000000f008070088
:104df400e00f5000e08f5800fcff3a001e0fe8005f
:104e04001e007800e70f5000e1ff34000080fa0034
:104e1400000006000400fa00f20907000000eb009d
:104e2400f07088000000eb00707188000000eb0057
:104e3400f07188000000eb00707288000000eb0045
:104e440070738800d20807000000eb00000f7800a0
:104e540015003700442ea900440ea800401f20006e
:104e640001002000e708070000000000d008070048
:104e7400e00f5000e08f5800fcff3a00442ea800d9
:104e8400440ea900401f200001002000dd08070097
:104e940000000000c6080700e00f5000e08f580033
:104ea400fcff3a001e0fe8001e007800e90f5000d6
:104eb400e8ff3400a2fe070071ff070024ff07008b
:104ec400fefe070087fe0700adff0700100020006c
:104ed400000f780020002000000f780041ff070039
:104ee4000000eb0010079800580037001e009000e7
:104ef400c200dd00203d2100008040001000be0003
:104f0400e00f5000e08f58004d0032001e0090006a
:104f14008000400020402100008040009000780084
:104f24001e009000000140002042210000004100ca
:104f340010007800808f50000c003a001e00900092
:104f44008000400020412100008040009000780053
:104f54001e00900000014000204321000000410099
:104f640010007800808f500035003200442ea900d4
:104f74001e00900080004000203f2100008040007f
:104f840010007800004078009e00900001814000ed
:104f94002141210081004100110178009e00900010
:104fa40081814000214021008180410091007800ee
:104fb4008041780010c0b300c3030700e04f5000e5
:104fc40002003a0047fe07001d0037001e00900053
:104fd40080004000204021000080400090007800c4
:104fe4001e0090000001400020422100000041000a
:104ff400010878001e00900080004000204121003c
:1050040000804000900078001e00900000014000e5
:10501400204321000000410001087800440ea9004b
:10502400401f200001002000760807000000000057
:105034005f080700e00f5000e08f5800fcff3a00c3
:105044001e0090000000e800100798001e00900069
:10505400e70f5000a5ff3400442ea800440ea8001a
:105064009eff37001000fa002007980031079800cf
:105074004207980053079800640798007507980042
:105084006000b800008fbe002e009000be009000ab
:10509400c601dd00020020004e009000de009000fa
:1050a400c300dd0000002000000171008181710057
:1050b4006e009000fe009000001f710001977100c7
:1050c4001e00be000080fa00000006000a00fa007c
:1050d400000f780021479800324798004347980012
:1050e400544798006547980076479800074f980002
:1050f4001e007800ae409000014898001e00780021
:10510400be409000114898001e007800ce409000e8
:10511400214898001e007800de4090003148980035
:105124001e007800ee409000414898001e00780070
:10513400fe409000514898001e0078008e48900070
:10514400614898001e0078008ef897007148980016
:105154000080fa00000006002c00fa00700f98008e
:105164000117980012179800231798003417980015
:1051740045179800266f9800376f9800ae68900026
:1051840000c3b30000c070004047980010c0b300d3
:10519400004f78003e129000ce1290001e11900035
:1051a400ae1190007e0890008e109000adff0700b5
:1051b40030079800410798000000eb0010079800a2
:1051c4001eb89700630040005007980030c0b30039
:1051d400504f98003e009000ce009000000f9800c1
:1051e400110f98001eb89700e00f50000300340020
:1051f40080c0b300405f98000200370070c0b30065
:10520400405f98001e407800405798001e4fe80009
:105214004e409000505798005e0090000040780087
:10522400605798005e0090004880de0000407800df
:10523400705798003e689000e14f500004003a0017
:10524400fe50900000c8b30000c070007057980072
:105254000ef89700005f98006ef09700105f9800ba
:105264004ef09700205f98001eb89700e00f5000a2
:10527400090034000eb8970010407800305f9800a1
:105284000eb897000000e80000bf9f001eb897000a
:105294000000e90010bf9f006c00470044fb0700ba
:1052a400680037001eb89700e70f50001f003c004d
:1052b4001eb89700004078000040e800405f980066
:1052c4001e407800405798001e4fe8001000200050
:1052d400100798000b0037000eb8970010407800b4
:1052e4009e009000f480400000f778000eb897000c
:1052f4000000e80000bf9f001e0090000000e800ce
:10530400100798001eb897008000e8001e00900067
:10531400808f5000f0ff3c000000eb0010bf9f00a6
:105324006c00470022fb07004600370080c0b30032
:10533400405f98001e407800405798001e4fe800d8
:105344000eb8970010407800505798000eb8970098
:105354000000e80000bf9f001eb897000000e900ad
:1053640010bf9f000eb89700104078006057980057
:105374000eb897000000e80000bf9f001eb8970019
:105384000000e90010bf9f000eb89700104078009d
:10539400705798000eb897000000e80000bf9f0007
:1053a4001eb897000000e90010bf9f000eb89700d8
:1053b40010407800005f98000eb897000000e800e5
:1053c40000bf9f001eb897000000e90010bf9f00b7
:1053d4000eb8970010407800105f98000eb8970040
:1053e4000000e80000bf9f001eb897000000e9001d
:1053f40010bf9f000eb8970010407800205f9800ff
:105404000eb897000000e80000bf9f001eb8970088
:105414000000e90010bf9f000eb89700104078000c
:10542400305f98000eb897000000e80000bf9f00ae
:105434001eb897000000e90010bf9f006c004700f1
:10544400dbfa07001eb89700e00f500095ff3c0000
:105454000080fa00000006001600fa00881f780099
:10546400f44d20006500200072002000030020009d
:10547400e001200001002000fafe0700008fbe00ba
:1054840030c0b300504798001e00be00400798008b
:105494005107980080c0b300405798006404470047
:1054a4000040eb00801f78008043eb000043eb00da
:1054b4008042eb000042eb008041eb000041eb0036
:1054c40011c0b3000800780000ff07008f87e900cf
:1054d40064004700b6fa0700f44d20006500200080
:1054e400520020000300200040072000010020009b
:1054f400dcfe0700008fbe0030c0b30050479800a8
:105504001e00be00400798005107980070c0b30009
:1055140040579800640447000040eb00801f780067
:1055240027c6b30006c1b30035c6b3000042eb0082
:1055340033c0b30012c3b30011c0b3000800780035
:10554400e2fe07008f87e9006400470098fa07002d
:105554004f0478000080fa00000006001600fa00ec
:10556400881f7800409e8000519e80000002be008b
:10557400120020000300200040072000010020004a
:10558400b8fe0700008fbe0030c0b300504798003b
:1055940010c0b300404f98001e00be0040079800a2
:1055a4005107980080c0b300405798006404470036
:1055b4000040eb00801f780077c6b30006c6b30036
:1055c40035c4b3000042eb0083c0b30032c3b30060
:1055d40011c0b30008007800bcfe07008f87e90003
:1055e4006400470072fa070050c0b30040579800a7
:1055f400640447000040eb00801f78008043eb0008
:105604000043eb0080c2eb0034c4b3008041eb00e4
:105614000041eb0021c0b30008007800abfe070096
:105624008f87e9006400470061fa07004f0478009f
:105634000080fa00000006001a00fa00881f7800b3
:10564400300f9800410f98003e089000ce0890005b
:105654000002be00120020000300200040072000ca
:10566400010020007ffe0700008fbe0030c0b300a1
:10567400504798001e00be0040079800510798004c
:1056840070c0b30040579800640447000040eb002a
:10569400801f780077c6b30006c3b30035c5b300d6
:1056a4000042eb0033c0b30032c3b30011c0b300f7
:1056b4000800780085fe07008f87e9006400470032
:1056c4003bfa07004f0478000080fa00000006004f
:1056d4001600fa004007200001002000008fbe00e1
:1056e40010002000010020002007980031079800d6
:1056f400409e8000519e800040079800510798000a
:1057040020c0b300404f98000040eb00504f980079
:1057140070c5b300604f980000c1b300704f98008b
:1057240020c7b300005798000000eb00100f98004a
:105734000040eb004057980074004700801f780039
:105744001e089000801f78000e509000801f780083
:105754007e489000801f78006e489000801f78007b
:10576400de4b90004e4b90004e029000de02900003
:105774002e019000be0190001e00be0076fe0700c0
:10578400ea8757000080fa00000006001a00fa00b9
:10579400881f7800300f9800410f98003e08900051
:1057a400ce0890000002be0012002000030020007a
:1057b40040072000010020002afe0700008fbe00e1
:1057c40030c0b300504798001e00be004007980048
:1057d4005107980080c0b300405798006404470004
:1057e40010c0b300801f780027c7b30006c6b300fb
:1057f40035c4b3000042eb0083c0b30032c3b3002e
:1058040011c0b3000800780030fe07008f87e9005c
:1058140064004700e6f9070030c0b3004057980021
:10582400640447000040eb00801f78008043eb00d5
:105834000043eb008042eb000042eb0080c1eb0030
:105844000041eb0021c0b300080078001ffe0700f0
:105854008f87e90064004700d5f907004f047800fa
:105864000080fa00000006001c00fa00881f78007f
:10587400300f9800410f9800520f98003e08900096
:10588400ce0890000002be00120020000300200099
:105894004007200001002000f2fd0700008fbe0039
:1058a40030c0b300504798001e00be004007980067
:1058b4005107980080c0b300405798006404470023
:1058c40010c0b300801f780037c7b30006c3b3000d
:1058d40045c4b3000042eb00a3c0b30032c3b3001d
:1058e40011c0b30008007800f8fd07008f87e900b5
:1058f40064004700aef9070070c0b3004057980039
:105904005e089000804078005e08900000407800b7
:10591400640447000041eb00821f780047c6b300cf
:1059240046c6b3008042eb00014278008041eb00a0
:105934000041780021c0b30008007800e3fd0700af
:105944008f87e9006400470099f907004f04780045
:105954000080fa00000006001c00fa00881f78008e
:10596400300f9800410f9800520f98003e089000a5
:10597400ce0890000002be001200200003002000a8
:105984004007200001002000b6fd0700008fbe0084
:1059940030c0b300504798001e00be004007980076
:1059a4005107980080c0b300405798006404470032
:1059b40010c0b300801f780037c7b30006c3b3001c
:1059c40045c4b3000042eb00a3c0b30032c3b3002c
:1059d40011c0b30008007800bcfd07008f87e90000
:1059e4006400470072f9070070c0b3004057980084
:1059f4005e089000804078005e08900000407800c7
:105a0400640447000041eb00821f78008043eb00f0
:105a14000043eb008042eb00014278008041eb0040
:105a24000041780021c0b30008007800a7fd0700fa
:105a34008f87e900640047005df907004f04780090
:105a44000080fa00000006001a00fa00300f9800e7
:105a5400410f98004007200001002000008fbe0085
:105a64001000200001002000200798003107980052
:105a74003e089000ce089000400798005107980017
:105a840030c0b300404f98000040eb00504f9800e6
:105a940030c5b300604f980010c3b300704f980036
:105aa40070c6b300005798000000eb00100f980078
:105ab4000040eb004057980074004700801f7800b6
:105ac4009e089000811f78000e509000801f78007f
:105ad4007e489000801f78006e489000801f7800f8
:105ae400de4b90004e4b90004e029000de02900080
:105af4002e019000be0190001e00be0096fd07001e
:105b0400ea8757000080fa00000006002200fa002d
:105b1400600f9800710f980002179800400720004a
:105b240001002000008fbe001000200001002000b2
:105b340020079800310798006e089000fe08900036
:105b4400400798005107980030c0b300404f9800b8
:105b54000040eb00504f980030c4b300604f9800f1
:105b640000c6b300704f980070c6b3000057980089
:105b740050002000100f98000e109000405798001d
:105b84000e1090004880de0050579800ce509000d0
:105b9400615798005e509000705798000040eb00e9
:105ba400005f980030c4b300105f980000c0eb00a1
:105bb400205f980076004700801f78009e089000c0
:105bc400811f78000e509000801f78007e4890005e
:105bd400801f78006e489000801f7800de4b900094
:105be4004e4b90004e029000de0290002e01900079
:105bf400be0190001e00be0057fd0700ea87570053
:105c04000080fa00000006001e00fa00881f7800d9
:105c1400300f9800410f9800520f9800630f9800be
:105c24003e089000ce0890000002be001200200042
:105c340003002000600720000100200009fd070088
:105c4400008fbe0030c0b300504798001e00be0055
